{
  "address": "0xe7f1725E7734CE288F8367e1Bb143E90bb3F0512",
  "abi": [
    {
      "inputs": [
        {
          "internalType": "address",
          "name": "signer",
          "type": "address"
        }
      ],
      "stateMutability": "nonpayable",
      "type": "constructor"
    },
    {
      "anonymous": false,
      "inputs": [
        {
          "indexed": true,
          "internalType": "address",
          "name": "user",
          "type": "address"
        },
        {
          "indexed": true,
          "internalType": "string",
          "name": "ipfsHash",
          "type": "string"
        },
        {
          "indexed": false,
          "internalType": "uint256",
          "name": "timestamp",
          "type": "uint256"
        }
      ],
      "name": "Saved",
      "type": "event"
    },
    {
      "inputs": [
        {
          "internalType": "address",
          "name": "user",
          "type": "address"
        }
      ],
      "name": "load",
      "outputs": [
        {
          "internalType": "string",
          "name": "",
          "type": "string"
        }
      ],
      "stateMutability": "view",
      "type": "function"
    },
    {
      "inputs": [
        {
          "internalType": "string",
          "name": "ipfsHash",
          "type": "string"
        },
        {
          "internalType": "bytes",
          "name": "signature",
          "type": "bytes"
        },
        {
          "internalType": "bytes",
          "name": "nonce",
          "type": "bytes"
        }
      ],
      "name": "save",
      "outputs": [],
      "stateMutability": "nonpayable",
      "type": "function"
    }
  ],
  "transactionHash": "0x6240e7cd3365e25305e38b2ee190b4c19b91d33a6972a932416cab108df504e7",
  "args": [
    "0x9FB1509688b0c974c92B19B41bB5EdfF7bD234f5"
  ],
  "numDeployments": 1,
  "solcInputHash": "dec3699dc5a22b60a4cb149b7e8920a5",
  "bytecode": "0x608060405234801561001057600080fd5b50604051610a3c380380610a3c83398101604081905261002f91610054565b600380546001600160a01b0319166001600160a01b0392909216919091179055610084565b60006020828403121561006657600080fd5b81516001600160a01b038116811461007d57600080fd5b9392505050565b6109a9806100936000396000f3fe608060405234801561001057600080fd5b50600436106100365760003560e01c80632f40e7341461003b578063df7bf9b114610064575b600080fd5b61004e6100493660046106da565b610079565b60405161005b919061073a565b60405180910390f35b610077610072366004610819565b610125565b005b6001600160a01b03811660009081526020819052604090208054606091906100a0906108b8565b80601f01602080910402602001604051908101604052809291908181526020018280546100cc906108b8565b80156101195780601f106100ee57610100808354040283529160200191610119565b820191906000526020600020905b8154815290600101906020018083116100fc57829003601f168201915b50505050509050919050565b60028160405161013591906108f3565b9081526040519081900360200190205460ff161561019a5760405162461bcd60e51b815260206004820152601f60248201527f536176654d616e616765723a204e6f7420612076616c6964206e6f6e6365210060448201526064015b60405180910390fd5b6101a583828461027d565b6101fd5760405162461bcd60e51b815260206004820152602360248201527f536176654d616e616765723a204e6f7420612076616c6964207369676e61747560448201526272652160e81b6064820152608401610191565b33600090815260208181526040909120845161021b92860190610641565b5033600090815260016020526040908190204290555161023c9084906108f3565b6040519081900381204282529033907f292b956cdba48d8a8c9245b8fd9057f5f33c4327410e80fdc56417dbe73c32159060200160405180910390a3505050565b6000803385856040516020016102959392919061090f565b60408051601f19818403018152919052805160209091012090506102b981846102d3565b6003546001600160a01b0391821691161495945050505050565b60008060006102e285856102f7565b915091506102ef81610367565b509392505050565b60008082516041141561032e5760208301516040840151606085015160001a61032287828585610525565b94509450505050610360565b825160401415610358576020830151604084015161034d868383610612565b935093505050610360565b506000905060025b9250929050565b600081600481111561037b5761037b61095d565b14156103845750565b60018160048111156103985761039861095d565b14156103e65760405162461bcd60e51b815260206004820152601860248201527f45434453413a20696e76616c6964207369676e617475726500000000000000006044820152606401610191565b60028160048111156103fa576103fa61095d565b14156104485760405162461bcd60e51b815260206004820152601f60248201527f45434453413a20696e76616c6964207369676e6174757265206c656e677468006044820152606401610191565b600381600481111561045c5761045c61095d565b14156104b55760405162461bcd60e51b815260206004820152602260248201527f45434453413a20696e76616c6964207369676e6174757265202773272076616c604482015261756560f01b6064820152608401610191565b60048160048111156104c9576104c961095d565b14156105225760405162461bcd60e51b815260206004820152602260248201527f45434453413a20696e76616c6964207369676e6174757265202776272076616c604482015261756560f01b6064820152608401610191565b50565b6000807f7fffffffffffffffffffffffffffffff5d576e7357a4501ddfe92f46681b20a083111561055c5750600090506003610609565b8460ff16601b1415801561057457508460ff16601c14155b156105855750600090506004610609565b6040805160008082526020820180845289905260ff881692820192909252606081018690526080810185905260019060a0016020604051602081039080840390855afa1580156105d9573d6000803e3d6000fd5b5050604051601f1901519150506001600160a01b03811661060257600060019250925050610609565b9150600090505b94509492505050565b6000806001600160ff1b03831660ff84901c601b0161063387828885610525565b935093505050935093915050565b82805461064d906108b8565b90600052602060002090601f01602090048101928261066f57600085556106b5565b82601f1061068857805160ff19168380011785556106b5565b828001600101855582156106b5579182015b828111156106b557825182559160200191906001019061069a565b506106c19291506106c5565b5090565b5b808211156106c157600081556001016106c6565b6000602082840312156106ec57600080fd5b81356001600160a01b038116811461070357600080fd5b9392505050565b60005b8381101561072557818101518382015260200161070d565b83811115610734576000848401525b50505050565b602081526000825180602084015261075981604085016020870161070a565b601f01601f19169190910160400192915050565b634e487b7160e01b600052604160045260246000fd5b600067ffffffffffffffff8084111561079e5761079e61076d565b604051601f8501601f19908116603f011681019082821181831017156107c6576107c661076d565b816040528093508581528686860111156107df57600080fd5b858560208301376000602087830101525050509392505050565b600082601f83011261080a57600080fd5b61070383833560208501610783565b60008060006060848603121561082e57600080fd5b833567ffffffffffffffff8082111561084657600080fd5b818601915086601f83011261085a57600080fd5b61086987833560208501610783565b9450602086013591508082111561087f57600080fd5b61088b878388016107f9565b935060408601359150808211156108a157600080fd5b506108ae868287016107f9565b9150509250925092565b600181811c908216806108cc57607f821691505b602082108114156108ed57634e487b7160e01b600052602260045260246000fd5b50919050565b6000825161090581846020870161070a565b9190910192915050565b6bffffffffffffffffffffffff198460601b1681526000835161093981601485016020880161070a565b83519083019061095081601484016020880161070a565b0160140195945050505050565b634e487b7160e01b600052602160045260246000fdfea2646970667358221220fb4cee2b6b509cb08d75d4550e97d93dca7e6d6288c61b2ce12182687d148b7b64736f6c634300080b0033",
  "devdoc": {
    "kind": "dev",
    "methods": {},
    "version": 1
  },
  "userdoc": {
    "kind": "user",
    "methods": {},
    "version": 1
  },
  "storageLayout": {
    "storage": [
      {
        "astId": 652,
        "contract": "contracts/SaveManager.sol:SaveManager",
        "label": "_saves",
        "offset": 0,
        "slot": "0",
        "type": "t_mapping(t_address,t_string_storage)"
      },
      {
        "astId": 656,
        "contract": "contracts/SaveManager.sol:SaveManager",
        "label": "_lastSave",
        "offset": 0,
        "slot": "1",
        "type": "t_mapping(t_address,t_uint256)"
      },
      {
        "astId": 660,
        "contract": "contracts/SaveManager.sol:SaveManager",
        "label": "_nonceUsed",
        "offset": 0,
        "slot": "2",
        "type": "t_mapping(t_bytes_memory_ptr,t_bool)"
      },
      {
        "astId": 662,
        "contract": "contracts/SaveManager.sol:SaveManager",
        "label": "_signer",
        "offset": 0,
        "slot": "3",
        "type": "t_address"
      }
    ],
    "types": {
      "t_address": {
        "encoding": "inplace",
        "label": "address",
        "numberOfBytes": "20"
      },
      "t_bool": {
        "encoding": "inplace",
        "label": "bool",
        "numberOfBytes": "1"
      },
      "t_bytes_memory_ptr": {
        "encoding": "bytes",
        "label": "bytes",
        "numberOfBytes": "32"
      },
      "t_mapping(t_address,t_string_storage)": {
        "encoding": "mapping",
        "key": "t_address",
        "label": "mapping(address => string)",
        "numberOfBytes": "32",
        "value": "t_string_storage"
      },
      "t_mapping(t_address,t_uint256)": {
        "encoding": "mapping",
        "key": "t_address",
        "label": "mapping(address => uint256)",
        "numberOfBytes": "32",
        "value": "t_uint256"
      },
      "t_mapping(t_bytes_memory_ptr,t_bool)": {
        "encoding": "mapping",
        "key": "t_bytes_memory_ptr",
        "label": "mapping(bytes => bool)",
        "numberOfBytes": "32",
        "value": "t_bool"
      },
      "t_string_storage": {
        "encoding": "bytes",
        "label": "string",
        "numberOfBytes": "32"
      },
      "t_uint256": {
        "encoding": "inplace",
        "label": "uint256",
        "numberOfBytes": "32"
      }
    }
  }
}